:100000000C943E000C945B000C945B000C945B0021
:100010000C945B000C945B000C945B000C945B00F4
:100020000C945B000C945B000C945B000C945B00E4
:100030000C945B000C945B000C945B000C945B00D4
:100040000C945B000C945B000C945B000C945B00C4
:100050000C9406010C9455010C945B000C945B000D
:100060000C945B000C945B000C945B000C945B00A4
:100070000C948F010C94DE010C945B0011241FBEC4
:10008000CFEFD8E0DEBFCDBF11E0A0E0B1E0E2E706
:10009000FAE002C005900D92A830B107D9F721E02F
:1000A000A8E0B1E001C01D92AE3AB207E1F70E94AC
:1000B0001F020C9437050C940000EAE7F0E0808101
:1000C0008064808380917A0084FFFCCFEAE7F0E0CF
:1000D0008081806180838091790090E0982F8827CB
:1000E00020917800822B0895FC019FB7F89481E05D
:1000F00004C010A211A212A280E08111FACF9FBF0A
:100100000895FC0192A181E0903209F080E0089509
:10011000FC0192A181E0911180E00895FB0190A182
:10012000DB01A90FB11D8C939FB7F89481E008C043
:1001300080A18F5F8F7180A382A18F5F82A380E0F7
:100140008111F6CF9FBF0895FC0181A1DF01A80FA7
:10015000B11D8C912FB7F89491E008C091A19F5FD9
:100160009F7191A392A1915092A390E09111F6CF2B
:100170002FBF08958AB18E7F8AB98BB181608BB908
:10018000809102019091030183960E9474008091F6
:100190000201909103010E9474001092C50083E354
:1001A0008093C400E1ECF0E0808188698083E2EC18
:1001B000F0E080818260808378940895CF93C82F87
:1001C000809102019091030183960E948100811128
:1001D000F7CF60910201709103016D5D7F4F8C2F0D
:1001E0000E948E00E1ECF0E0808180628083CF91FC
:1001F0000895CF93DF93EC0103C021960E94DE00A7
:1002000088818111FACFDF91CF9108951F920F92CB
:100210000FB60F9211242F933F934F935F936F93D9
:100220007F938F939F93AF93BF93CF93EF93FF935E
:10023000C091C60080910201909103010E9481004B
:10024000811114C060910201709103018C2F0E94F2
:100250008E00E0910201F09103018091C0008C7149
:1002600090E0EA5BFF4F918380830DC0E091020133
:10027000F09103018091C0008C71816090E0EA5B95
:10028000FF4F91838083FF91EF91CF91BF91AF9109
:100290009F918F917F916F915F914F913F912F919E
:1002A0000F900FBE0F901F9018951F920F920FB6D0
:1002B0000F9211242F933F934F935F936F937F93EC
:1002C0008F939F93AF93BF93EF93FF93809102011E
:1002D0009091030183960E94880081110AC0809149
:1002E00002019091030183960E94A4008093C600AE
:1002F00005C0E1ECF0E080818F7D8083FF91EF917C
:10030000BF91AF919F918F917F916F915F914F912D
:100310003F912F910F900FBE0F901F9018951F9235
:100320000F920FB60F9211242F933F934F935F9329
:100330006F937F938F939F93AF93BF93CF93EF93DD
:10034000FF93C091CE0080910001909101010E9425
:100350008100811114C060910001709101018C2F06
:100360000E948E00E0910001F09101018091C8008F
:100370008C7190E0EA5BFF4F918380830DC0E09128
:100380000001F09101018091C8008C7190E09160B2
:10039000EA5BFF4F91838083FF91EF91CF91BF91F3
:1003A000AF919F918F917F916F915F914F913F910D
:1003B0002F910F900FBE0F901F9018951F920F92C4
:1003C0000FB60F9211242F933F934F935F936F9328
:1003D0007F938F939F93AF93BF93EF93FF938091FE
:1003E00000019091010183960E94880081110AC04A
:1003F000809100019091010183960E94A400809356
:10040000CE0005C0E9ECF0E080818F7D8083FF9114
:10041000EF91BF91AF919F918F917F916F915F917C
:100420004F913F912F910F900FBE0F901F901895F5
:1004300080E480937C0086EE80937A00089581B1F9
:1004400081B912B80E94BA000E94180280E00E948E
:100450005D0080939801909399019F938F9384E01E
:1004600091E09F938F938AE991E09F938F930E94ED
:100470004D028AE991E00E94F9002FEF84E39CE0AD
:10048000215080409040E1F700C000000F900F9095
:100490000F900F900F900F90D9CFAEE0B0E0E3E552
:1004A000F2E00C940E050D891E8986E08C831A8378
:1004B00009838FEF9FE79E838D83AE01475E5F4F79
:1004C0006F89788DCE0101960E946F02EF81F885C9
:1004D000E00FF11F10822E96E4E00C942A05ABE0A9
:1004E000B0E0E5E7F2E00C9400056C017B018A01C5
:1004F000FC0117821682838181FFCCC1CE01019657
:100500003C01F6019381F70193FD859193FF819161
:100510007F01882309F4BAC1853239F493FD8591AE
:1005200093FF81917F01853229F4B60190E00E940A
:100530006604E7CF912C212C312CFFE1F315D8F084
:100540008B3279F038F4803279F08332A1F4232DA4
:1005500020611DC08D3261F0803369F4232D21604C
:1005600016C0832D8260382EE32DE4603E2E2AC013
:10057000F32DF8601DC037FC2DC020ED280F2A3068
:1005800040F08E32B9F436FC81C1232D2064322E26
:1005900019C036FE06C08AE0989E200D1124922EC6
:1005A00011C0EAE02E9E200D1124222EF32DF062C0
:1005B0003F2E08C08C3621F4832D8068382E02C06F
:1005C000883641F4F70193FD859193FF81917F0176
:1005D0008111B3CF982F9F7D9554933028F40C5FF1
:1005E0001F4F9FE399830DC0833631F0833771F03D
:1005F000833509F059C021C0F801808189830E5FDD
:100600001F4F88248394912C530113C02801F2E0DA
:100610004F0E511CF801A080B18036FE03C0692D39
:1006200070E002C06FEF7FEFC5010E945B044C01D8
:100630008201F32DFF773F2E16C0280122E0420EE3
:10064000511CF801A080B18036FE03C0692D70E016
:1006500002C06FEF7FEFC5010E9450044C01F32DE3
:10066000F0683F2E820133FC1BC0822D90E088167B
:100670009906B0F4B60180E290E00E9466042A94E4
:10068000F4CFF50137FC859137FE81915F01B6010A
:1006900090E00E94660421102A9421E0821A9108B9
:1006A0008114910471F7E8C0843611F0893641F560
:1006B000F80137FE07C060817181828193810C5FF0
:1006C0001F4F08C060817181072E000C880B990BA9
:1006D0000E5F1F4FF32DFF763F2E97FF09C09095B9
:1006E0008095709561957F4F8F4F9F4FF0683F2E9B
:1006F0002AE030E0A3010E94A204882E861845C09B
:10070000853731F4232D2F7EB22E2AE030E025C02C
:10071000932D997FB92E8F36C1F018F4883579F072
:10072000B5C0803719F0883721F0B0C0E92FE061FB
:10073000BE2EB4FE0DC0FB2DF460BF2E09C034FEEA
:100740000AC0292F2660B22E06C028E030E005C07E
:1007500020E130E002C020E132E0F801B7FE07C03E
:1007600060817181828193810C5F1F4F06C060811F
:10077000718180E090E00E5F1F4FA3010E94A204F0
:10078000882E8618FB2DFF773F2E36FE0DC0232DB9
:100790002E7FA22E891458F434FE0BC032FC09C0FF
:1007A000832D8E7EA82E05C0B82CA32C03C0B82C98
:1007B00001C0B92CA4FE0FC0FE01E80DF11D80811F
:1007C000803321F49A2D997EA92E09C0A2FE06C07D
:1007D000B394B39404C08A2D867809F0B394A3FC33
:1007E00011C0A0FE06C0B21488F4280C922C9B18ED
:1007F0000EC0B21460F4B60180E290E00E9466047C
:10080000B394F7CFB21418F42B1802C0982C212CF3
:10081000A4FE10C0B60180E390E00E946604A2FE30
:1008200017C0A1FC03C088E790E002C088E590E013
:10083000B6010CC08A2D867859F0A1FE02C08BE269
:1008400001C080E2A7FC8DE2B60190E00E94660440
:10085000891438F4B60180E390E00E9466049A940B
:10086000F7CF8A94F301E80DF11D8081B60190E085
:100870000E9466048110F5CF222009F442CEB60111
:1008800080E290E00E9466042A94F6CFF601868109
:10089000978102C08FEF9FEF2B96E2E10C941C052D
:1008A000FC010590615070400110D8F7809590953B
:1008B0008E0F9F1F0895FC01615070400190011040
:1008C000D8F7809590958E0F9F1F08950F931F93D3
:1008D000CF93DF93FB01238121FD03C08FEF9FEFB7
:1008E0002CC022FF16C046815781248135814217D2
:1008F000530744F4A081B1819D012F5F3F4F3183A5
:1009000020838C93268137812F5F3F4F3783268347
:1009100014C08B01EC01FB010084F185E02D0995E9
:10092000892BE1F6D80116968D919C911797019627
:1009300017969C938E931697CE01DF91CF911F91BE
:100940000F910895FA01AA27283051F1203181F141
:10095000E8946F936E7F6E5F7F4F8F4F9F4FAF4FC7
:10096000B1E03ED0B4E03CD0670F781F891F9A1FDA
:10097000A11D680F791F8A1F911DA11D6A0F711D8E
:10098000811D911DA11D20D009F468943F912AE09A
:10099000269F11243019305D3193DEF6CF01089582
:1009A000462F4770405D4193B3E00FD0C9F7F6CFB3
:1009B000462F4F70405D4A3318F0495D31FD40527B
:1009C000419302D0A9F7EACFB4E0A6959795879511
:1009D00077956795BA95C9F70097610571050895F0
:1009E0009B01AC010A2E069457954795379527959C
:1009F000BA95C9F7620F731F841F951FA01D089534
:100A00002F923F924F925F926F927F928F929F921E
:100A1000AF92BF92CF92DF92EF92FF920F931F930C
:100A2000CF93DF93CDB7DEB7CA1BDB0B0FB6F894BD
:100A3000DEBF0FBECDBF09942A88398848885F84FD
:100A40006E847D848C849B84AA84B984C884DF806E
:100A5000EE80FD800C811B81AA81B981CE0FD11D52
:100A60000FB6F894DEBF0FBECDBFED010895F89428
:020A7000FFCFB6
:080A72000801500125640A008F
:00000001FF
